:040000004FEF27F0A7
:10080000006937AC3168212233B40F14336821A258
:10081000333863ED3EDA0F493F5E987B3FDA0FC90C
:100820003F25AC7C3D4712DABD0DF5113E98CA4C10
:10083000BEA9AAAA3E20576865656C416E676C65C3
:10084000203D2020252E316620207C202041726D05
:10085000416E676C653D20252E3166202025640D94
:100860000A2000696E66006E616E0000000E0001D5
:10087000A76F7FC0A8F080C0A9F081C0AAF082C095
:10088000ABF0ABBF48EF04F046EF04F05CEF04F0D0
:10089000010EA76FA8C001F0A9C002F0AAC003F022
:1008A000ABC004F040EC28F001C0A8F002C0A9F0F1
:1008B00003C0AAF004C0ABF0000E0001AD6F000E43
:1008C000AC6FE4C097F0E5C098F0A751D8B46BEFD7
:1008D00004F06DEF04F081EF04F0A751D8A473EF9A
:1008E00004F075EF04F07BEF04F0000E8D6F2B0E1B
:1008F0008C6F7FEF04F0000E8D6F2D0E8C6F8CC00F
:10090000A7F0A8C001F0A9C002F0AAC003F0ABC0D4
:1009100004F09DEC23F001040210D8A492EF04F03F
:1009200094EF04F0C5EF04F00001A751D8B49BEF99
:1009300004F09DEF04F0A6EF04F0A7C000F29707C3
:10094000D8A09807000EAD6F010EAC6F000EAC255D
:10095000016E020EAD21026E630E036E23EC28F0D1
:100960000001FD0E9727FF0E98237DC011F07EC079
:1009700012F0000E136E020E146E97C015F098C0A0
:1009800016F06CEC26F02DEF09F0A8C001F0A9C01C
:1009900002F0AAC003F0ABC004F09DEC23F00150BC
:1009A0000210D8A4D6EF04F0D8EF04F0F6EF04F06C
:1009B0000001A751D8B4DFEF04F0E1EF04F0EAEF53
:1009C00004F0A7C000F29707D8A09807000EAD6FFB
:1009D000010EAC6F000EAC25016E020EAD21026E51
:1009E000670E036E23EC28F0B0EF04F0000E000158
:1009F000AE6F000EAF6F800EB06F3F0EB16F000E86
:100A0000966F000E956FA8C001F0A9C002F0AAC0B1
:100A100003F0ABC004F0000E056E000E066E000E73
:100A2000076E000E086E3BEC25F0D8B01AEF05F00B
:100A30001CEF05F0FBEF05F029EF05F099C0AEF0D3
:100A40009AC0AFF09BC0B0F09CC0B1F00001954BD4
:100A5000962BAEC001F0AFC002F0B0C003F0B1C041
:100A600004F0000E056E000E066E200E076E410E9D
:100A7000086E46EC0FF001C099F002C09AF003C076
:100A80009BF004C09CF000019951A85D016E9A5141
:100A9000A959026E9B51AA59036E9C51AB59046E21
:100AA000D4EC26F004BE60EF05F0045003100210F1
:100AB00009E1020E015CD8A060EF05F062EF05F0DD
:100AC0001EEF05F099C01AF09AC01BF09BC01CF0F5
:100AD0009CC01DF0A8C01EF0A9C01FF0AAC020F045
:100AE000ABC021F01BEC23F0D8A079EF05F07BEF31
:100AF00005F01EEF05F00001AE51A85D016EAF518B
:100B0000A959026EB051AA59036EB151AB59046E86
:100B1000D4EC26F004BE9AEF05F004500310021046
:100B200007E1020E015CD8B098EF05F09AEF05F0EE
:100B3000E2EF05F0AEC0A8F0AFC0A9F0B0C0AAF0D7
:100B4000B1C0ABF0FBEF05F0AEC04FF0AFC050F05E
:100B5000B0C051F0B1C052F0000E536E000E546E92
:100B6000200E556E410E566E4AEC13F04FC0AEF09B
:100B700050C0AFF051C0B0F052C0B1F000019507C5
:100B8000D8A09607AE51A85D016EAF51A959026E6B
:100B9000B051AA59036EB151AB59046ED4EC26F092
:100BA00004BEE0EF05F004500310021007E1020E4E
:100BB000015CD8B0DEEF05F0E0EF05F0E2EF05F004
:100BC0009AEF05F0A8C01AF0A9C01BF0AAC01CF04B
:100BD000ABC01DF0AEC01EF0AFC01FF0B0C020F023
:100BE000B1C021F01BEC23F0D8A0F9EF05F0FBEF2A
:100BF00005F0A4EF05F083C08FF08FC090F00001E6
:100C0000E7BF05EF06F007EF06F00DEF06F0E6C0D0
:100C100088F0E7C089F011EF06F0000E896F060E2C
:100C2000886F88C093F089C094F0934B942B660E24
:100C30009019D8A41EEF06F020EF06F040EF06F062
:100C400096BF27EF06F025EF06F033EF06F0000E13
:100C5000AE6F000EAF6F800EB06F3F0EB16F000E23
:100C6000966F000E956F670E8F19D8B43AEF06F0A5
:100C70003CEF06F040EF06F09551932796519423F0
:100C8000000E9E6F000E9D6FA8C09FF0A9C0A0F03F
:100C9000AAC0A1F0ABC0A2F0AEC099F0AFC09AF06C
:100CA000B0C09BF0B1C09CF0D1EF06F09FC04FF0F8
:100CB000A0C050F0A1C051F0A2C052F0AEC053F09D
:100CC000AFC054F0B0C055F0B1C056F04AEC13F0CC
:100CD0004FC05BF050C05CF051C05DF052C05EF0A0
:100CE00051EC1CF05BC0A3F05CC0A4F05DC0A5F0AB
:100CF0005EC0A6F0A3C001F0A4C002F0A5C003F03E
:100D0000A6C004F098EC22F001C091F002C092F06D
:100D10009FC02AF0A0C02BF0A1C02CF0A2C02DF0E3
:100D2000A3C005F0A4C006F0A5C007F0A6C008F057
:100D3000AEC001F0AFC002F0B0C003F0B1C004F02B
:100D400046EC0FF001C02EF002C02FF003C030F0CF
:100D500004C031F0BEEC27F02AC09FF02BC0A0F0F9
:100D60002CC0A1F02DC0A2F0AEC04FF0AFC050F02B
:100D7000B0C051F0B1C052F0000E536E000E546E70
:100D8000200E556E410E566E4AEC13F04FC0AEF079
:100D900050C0AFF051C0B0F052C0B1F000019D4B57
:100DA0009E2B93519D5D9E51800A846F9451800AC1
:100DB0008459D8A0DEEF06F0E0EF06F056EF06F01B
:100DC000AEC001F0AFC002F0B0C003F0B1C004F09B
:100DD000000E056E000E066EA00E076E400E086E29
:100DE00046EC0FF001C0A3F002C0A4F003C0A5F0D0
:100DF00004C0A6F09FC01AF0A0C01BF0A1C01CF058
:100E0000A2C01DF0A3C01EF0A4C01FF0A5C020F01A
:100E1000A6C021F01BEC23F0D8B011EF07F013EFC0
:100E200007F01EEF07F0000E0001A36F000EA46F85
:100E3000000EA56F000EA66F47EF07F09FC001F0F0
:100E4000A0C002F0A1C003F0A2C004F0A3C005F04E
:100E5000A4C006F0A5C007F0A6C008F03BEC25F042
:100E6000D8A035EF07F037EF07F047EF07F00001A4
:100E700091B13DEF07F03FEF07F047EF07F0000EAD
:100E8000A36F000EA46F000EA56F000EA66FA8C082
:100E90001AF0A9C01BF0AAC01CF0ABC01DF0A3C083
:100EA0001EF0A4C01FF0A5C020F0A6C021F0E6EC03
:100EB0000CF01AC09FF01BC0A0F01CC0A1F01DC018
:100EC000A2F09FC01AF0A0C01BF0A1C01CF0A2C0ED
:100ED0001DF0000E056E000E066E200E076E410E10
:100EE000086E99C001F09AC002F09BC003F09CC04C
:100EF00004F046EC0FF001C01EF002C01FF003C06A
:100F000020F004C021F01BEC23F0D8A08AEF07F0FA
:100F10008CEF07F0B5EF07F00001954B962B99C0C9
:100F200001F09AC002F09BC003F09CC004F0000ED8
:100F3000056E000E066E200E076E410E086E46EC22
:100F40000FF001C099F002C09AF003C09BF004C0FA
:100F50009CF0660E00019019D8A4B1EF07F0B3EF32
:100F600007F0B5EF07F0934B942B99C0AEF09AC001
:100F7000AFF09BC0B0F09CC0B1F095C086F096C0B9
:100F800087F0000E00018E6F000E8B6F000E8A6FCF
:100F9000000E9E6F000E9D6FB3EF08F09FC04FF0E4
:100FA000A0C050F0A1C051F0A2C052F0AEC053F0AA
:100FB000AFC054F0B0C055F0B1C056F04AEC13F0D9
:100FC0004FC05BF050C05CF051C05DF052C05EF0AD
:100FD00051EC1CF05BC0A3F05CC0A4F05DC0A5F0B8
:100FE0005EC0A6F0A3C001F0A4C002F0A5C003F04B
:100FF000A6C004F098EC22F002BE0AEF08F00250FE
:1010000007E10A0E015CD8B008EF08F00AEF08F01B
:101010001AEF08F0A3C001F0A4C002F0A5C003F0CD
:10102000A6C004F098EC22F001C091F002C092F04A
:101030001FEF08F0000E0001926F090E916F000182
:101040008E51D8A426EF08F028EF08F050EF08F0F2
:1010500087BF2FEF08F02DEF08F050EF08F0000EDB
:10106000AC25D96E020EAD21DA6E2E0EDF6EAC4BC2
:10107000AD2B9707D8A09807010E8E6F50EF08F0A0
:10108000000EAC25D96E020EAD21DA6E300EDF6E89
:10109000AC4BAD2B9707D8A098078A07D8A08B0731
:1010A0008A518B11D8A457EF08F059EF08F040EFA0
:1010B00008F0000EAC25D96E020EAD21DA6E91510A
:1010C000300FDF6EAC4BAD2B9707D8A098079FC0B1
:1010D0002AF0A0C02BF0A1C02CF0A2C02DF0A3C01C
:1010E00005F0A4C006F0A5C007F0A6C008F0AEC089
:1010F00001F0AFC002F0B0C003F0B1C004F046ECA4
:101100000FF001C02EF002C02FF003C030F004C079
:1011100031F0BEEC27F02AC09FF02BC0A0F02CC00D
:10112000A1F02DC0A2F0AEC04FF0AFC050F0B0C0E3
:1011300051F0B1C052F0000E536E000E546E200EEE
:10114000556E410E566E4AEC13F04FC0AEF050C0D3
:10115000AFF051C0B0F052C0B1F000018607D8A086
:1011600087079D4B9E2B93519D5D9E51800A846FF6
:101170009451800A8459D8B0C0EF08F0C2EF08F04B
:10118000D0EF08F0ADBFCEEF08F0AD5109E14B0E46
:10119000AC5DD8A0CEEF08F0D0EF08F0CEEF07F0AE
:1011A000000E9E6F4F0E9D6F000E9D25D96E020E94
:1011B0009E21DA6EDF6A000E846F020E856FAC51DD
:1011C000845FAD51855B9D518425016E9E518521C3
:1011D000026E000E036E020E046EACC005F0ADC0D0
:1011E00006F027EC27F00001AC519D5DAC6FAD51CE
:1011F0009E59AD6FA751D8A400EF09F003EF09F095
:10120000010E04EF09F0000E9D6F9E6BA751D8B43C
:101210000CEF09F00EEF09F019EF09F0AC07D8A0B8
:10122000AD07000EAC25D96E020EAD21DA6EA7C057
:10123000DFFF9D51975F9E51985B7DC011F07EC08E
:1012400012F0000EAC25136E020EAD21146E97C085
:1012500015F098C016F06CEC26F012005BC093F00D
:101260005CC094F05DC095F05EC096F0000196BF42
:101270003CEF09F03FEF09F0010E40EF09F0000EDE
:10128000896F969F800E955D4C0E9659D8A04BEFB6
:1012900009F04DEF09F0B3EF09F05BC001F05CC05D
:1012A00002F05DC003F05EC004F09DEC23F001503D
:1012B0000210D8A45EEF09F060EF09F06AEF09F0C0
:1012C0005BC05BF05CC05CF05DC05DF05EC05EF07A
:1012D000E5EF0CF01D0EF66E080EF76E0900F5CF67
:1012E0001AF00900F5CF1BF00900F5CF1CF00A0039
:1012F000F5CF1DF0000E1E6E000E1F6E800E206ECC
:10130000030E216EE6EC0CF01AC08FF01BC090F0BB
:101310001CC091F01DC092F000018951D8A493EF38
:1013200009F095EF09F09FEF09F08FC05BF090C0D6
:101330005CF091C05DF092C05EF0E5EF0CF08FC004
:1013400001F090C002F091C003F092C004F040ECB4
:1013500028F001C05BF002C05CF003C05DF004C087
:101360005EF0E5EF0CF0E00E955D3E0E9659D8B0BC
:10137000BCEF09F0BEEF09F0CEEF09F0800E955DED
:10138000390E9659D8B0C7EF09F0C9EF09F0CBEF85
:1013900009F060EF09F08E6908EF0BF05BC001F017
:1013A0005CC002F05DC003F05EC004F090EC28F079
:1013B00001C05BF002C05CF003C05DF004C05EF0F1
:1013C000980E0001955D3F0E9659D8B0EAEF09F0EE
:1013D000ECEF09F08DEF0AF0300E955D3F0E965957
:1013E000D8B0F5EF09F0F7EF09F04BEF0AF0000E77
:1013F0008E6F000E1E6E000E1F6E800E206EBF0ED2
:10140000216E000E056E000E066E000E076E400E79
:10141000086E5BC001F05CC002F05DC003F05EC00E
:1014200004F046EC0FF001C01AF002C01BF003C03C
:101430001CF004C01DF0E6EC0CF01AC04FF01BC00D
:1014400050F01CC051F01DC052F0000E1E6E000E78
:101450001F6E000E206E400E216E5BC01AF05CC045
:101460001BF05DC01CF05EC01DF0E6EC0CF01AC075
:1014700053F01BC054F01CC055F01DC056F04AEC90
:1014800013F04FC05BF050C05CF051C05DF052C033
:101490005EF008EF0BF0010E8E6F000E1E6E000E58
:1014A0001F6E800E206EBF0E216E5BC01AF05CC0F6
:1014B0001BF05DC01CF05EC01DF0E6EC0CF01AC025
:1014C0004FF01BC050F01CC051F01DC052F0000E78
:1014D0001E6E000E1F6E800E206E3F0E216E5BC0D2
:1014E0001AF05CC01BF05DC01CF05EC01DF0E6ECA5
:1014F0000CF01AC053F01BC054F01CC055F01DC0B6
:1015000056F04AEC13F04FC05BF050C05CF051C095
:101510005DF052C05EF008EF0BF01C0E955D400EC2
:101520009659D8B096EF0AF098EF0AF0ECEF0AF06F
:10153000020E8E6F000E1E6E000E1F6EC00E206E0D
:10154000BF0E216E5BC01AF05CC01BF05DC01CF0CA
:101550005EC01DF0E6EC0CF01AC04FF01BC050F05E
:101560001CC051F01DC052F0000E1E6E000E1F6E0A
:10157000800E206E3F0E216E000E056E000E066E70
:10158000C00E076E3F0E086E5BC001F05CC002F03B
:101590005DC003F05EC004F046EC0FF001C01AF02D
:1015A00002C01BF003C01CF004C01DF0E6EC0CF000
:1015B0001AC053F01BC054F01CC055F01DC056F0AB
:1015C0004AEC13F04FC05BF050C05CF051C05DF0CE
:1015D00052C05EF008EF0BF0030E8E6F000E4F6EE0
:1015E000000E506E800E516EBF0E526E5BC053F0F7
:1015F0005CC054F05DC055F05EC056F04AEC13F08C
:101600004FC05BF050C05CF051C05DF052C05EF066
:101610005BC001F05CC002F05DC003F05EC004F08E
:101620005BC005F05CC006F05DC007F05EC008F06E
:1016300046EC0FF001C08FF002C090F003C091F0B3
:1016400004C092F08FC001F090C002F091C003F08E
:1016500092C004F08FC005F090C006F091C007F072
:1016600092C008F046EC0FF001C08AF002C08BF087
:1016700003C08CF004C08DF00D0E1E6EF50E1F6EB3
:10168000110E206E3E0E216E250E056EAC0E066EFE
:101690007C0E076E3D0E086E8AC001F08BC002F012
:1016A0008CC003F08DC004F046EC0FF001C01AF0BE
:1016B00002C01BF003C01CF004C01DF0E6EC0CF0EF
:1016C0001AC081F01BC082F01CC083F01DC084F0E2
:1016D000A90E1E6EAA0E1F6EAA0E206E3E0E216E61
:1016E0008AC005F08BC006F08CC007F08DC008F0F2
:1016F00081C001F082C002F083C003F084C004F016
:1017000046EC0FF001C01AF002C01BF003C01CF041
:1017100004C01DF0E6EC0CF01AC06DF01BC06EF0BA
:101720001CC06FF01DC070F06DC001F06EC002F003
:101730006FC003F070C004F08FC005F090C006F0D9
:1017400091C007F092C008F046EC0FF001C079F0AC
:1017500002C07AF003C07BF004C07CF0980E1E6ECD
:10176000CA0E1F6E4C0E206EBE0E216E470E056E09
:10177000120E066EDA0E076EBD0E086E8AC001F0FC
:101780008BC002F08CC003F08DC004F046EC0FF06B
:1017900001C01AF002C01BF003C01CF004C01DF011
:1017A000E6EC0CF01AC081F01BC082F01CC083F084
:1017B0001DC084F081C001F082C002F083C003F03C
:1017C00084C004F08AC005F08BC006F08CC007F01E
:1017D0008DC008F046EC0FF001C07DF002C07EF035
:1017E00003C07FF004C080F000018EBFFCEF0BF05F
:1017F000FAEF0BF044EF0CF05BC005F05CC006F0B4
:101800005DC007F05EC008F07DC01EF07EC01FF016
:101810007FC020F080C021F079C01AF07AC01BF0A0
:101820007BC01CF07CC01DF0E6EC0CF01AC001F08F
:101830001BC002F01CC003F01DC004F046EC0FF00A
:1018400001C085F002C086F003C087F004C088F0B4
:101850005BC02AF05CC02BF05DC02CF05EC02DF0A8
:1018600085C02EF086C02FF087C030F088C031F0E0
:10187000BEEC27F02AC05BF02BC05CF02CC05DF002
:101880002DC05EF0E5EF0CF05BC005F05CC006F02B
:101890005DC007F05EC008F07DC01EF07EC01FF086
:1018A0007FC020F080C021F079C01AF07AC01BF010
:1018B0007BC01CF07CC01DF0E6EC0CF01AC001F0FF
:1018C0001BC002F01CC003F01DC004F046EC0FF07A
:1018D00001C085F002C086F003C087F004C088F024
:1018E00000018E51040DF350010F5F6E5FC0F6FFD3
:1018F000080EF76E0900F5CF2EF00900F5CF2FF096
:101900000900F5CF30F00A00F5CF31F085C02AF09C
:1019100086C02BF087C02CF088C02DF0BEEC27F0DD
:101920002AC071F02BC072F02CC073F02DC074F07F
:101930005BC02EF05CC02FF05DC030F05EC031F0B7
:1019400071C02AF072C02BF073C02CF074C02DF05F
:10195000BEEC27F02AC075F02BC076F02CC077F0D3
:101960002DC078F000018E51040DF350110F5F6E01
:101970005FC0F6FF080EF76E0900F5CF2AF00900E8
:10198000F5CF2BF00900F5CF2CF00A00F5CF2DF0A4
:1019900075C02EF076C02FF077C030F078C031F0EF
:1019A000BEEC27F02AC08FF02BC090F02CC091F035
:1019B0002DC092F000018951D8A4E1EF0CF0E3EFC3
:1019C0000CF09FEF09F095EF09F012001D50800B0D
:1019D000266E1D501D24286E1CAEF1EF0CF0F3EFA7
:1019E0000CF0F4EF0CF028802850D8B4FAEF0CF08B
:1019F000FCEF0CF011EF0DF02828D8A402EF0DF049
:101A000004EF0DF00CEF0DF0000E1A6E000E1B6EC1
:101A1000000E1C6E000E1D6E1C8E000E1D6E19EF4A
:101A20000DF0000E1A6E000E1B6E000E1C6E000EE6
:101A30001D6E2150800B276E26502718D8B423EF37
:101A40000DF025EF0DF026EF0DF0268C215021240E
:101A5000276E20AE2EEF0DF030EF0DF031EF0DF0D0
:101A600027802750D8B437EF0DF039EF0DF04EEF47
:101A70000DF02728D8A43FEF0DF041EF0DF049EF0E
:101A80000DF0000E1E6E000E1F6E000E206E000E7A
:101A9000216E208E000E216E56EF0DF0000E1E6E90
:101AA000000E1F6E000E206E000E216E2850275C67
:101AB000D8B05DEF0DF05FEF0DF086EF0DF026ACC6
:101AC00064EF0DF066EF0DF068EF0DF0800E261A52
:101AD00028C029F027C028F029C027F01AC029F013
:101AE0001EC01AF029C01EF01BC029F01FC01BF039
:101AF00029C01FF01CC029F020C01CF029C020F014
:101B00001DC029F021C01DF029C021F0000E296E52
:101B1000285027C022F0236A225E000E235A23BEDB
:101B20009BEF0DF0235009E11A0E225CD8A09BEF29
:101B30000DF09DEF0DF0D4EF0DF01A501B101C109E
:101B40001D10D8A4A6EF0DF0A9EF0DF0010EAAEF1D
:101B50000DF0000E296E000E1A6E000E1B6E000EA8
:101B60001C6E000E1D6E27C028F0DDEF0DF029A0C1
:101B7000BCEF0DF0BEEF0DF0C4EF0DF0D8902930A2
:101B80000109296EC6EF0DF0D89029321AA0CBEFCB
:101B90000DF0CDEF0DF0CEEF0DF0298E1D341D327E
:101BA0001C321B321A32282A2750285CD8A0DBEFBF
:101BB0000DF0DDEF0DF0B7EF0DF026BCE2EF0DF00C
:101BC000E4EF0DF024EF0EF02850D8A4EAEF0DF06A
:101BD000ECEF0DF0F6EF0DF0000E1A6E000E1B6E1E
:101BE000000E1C6E000E1D6E45EF0FF01E501A26E3
:101BF0001F501B2220501C2221501D221DA003EF2C
:101C00000EF005EF0EF0B1EF0EF029A00AEF0EF086
:101C10000CEF0EF012EF0EF0D89029300109296E6A
:101C200014EF0EF0D89029321AA019EF0EF01BEF26
:101C30000EF01CEF0EF0298E1D341D321C321B32AB
:101C40001A32282AB1EF0EF01E501A5C1F501B5892
:101C500020501C581D50800A226E2150800A2258A4
:101C6000D8B035EF0EF037EF0EF062EF0EF01A50ED
:101C70001E5C226E1B501F58236E1C502058246E71
:101C80001D502158256EFF0E22241A6EFF0E2320B0
:101C90001B6EFF0E24201C6EFF0E25201D6E800E75
:101CA000261A296C2950D8A458EF0EF05AEF0EF0DE
:101CB0006AEF0EF0010E1A26000E1B221C221D22B6
:101CC0006AEF0EF01E501A5E1F501B5A20501C5A0D
:101CD00021501D5A1A501B101C101D10D8A473EF50
:101CE0000EF075EF0EF0AAEF0EF02950D8A47BEF9E
:101CF0000EF07DEF0EF0AAEF0EF0000E1A6E000E41
:101D00001B6E000E1C6E000E1D6E45EF0FF0D8907E
:101D10001A361B361C361D3629AE91EF0EF093EFA6
:101D20000EF094EF0EF01A8029A099EF0EF09BEFC1
:101D30000EF09FEF0EF0D8802936A1EF0EF0D8906C
:101D400029362850D8B4A7EF0EF0A9EF0EF0AAEF6D
:101D50000EF028061CAEAFEF0EF0B1EF0EF087EFDD
:101D60000EF0000E276E29AEB8EF0EF0BAEF0EF0AF
:101D7000D2EF0EF029C022F07F0E2216D8B4C3EFA6
:101D80000EF0C5EF0EF0C9EF0EF0010E276ED2EF88
:101D90000EF01AA0CEEF0EF0D0EF0EF0D2EF0EF054
:101DA000C5EF0EF02750D8B4D8EF0EF0DAEF0EF0F2
:101DB00005EF0FF0010E1A26000E1B221C221D2219
:101DC0001DA0E5EF0EF0E7EF0EF005EF0FF01AC0E3
:101DD00022F01BC023F01CC024F01DC025F02534C8
:101DE000253224322332223222C01AF023C01BF0C3
:101DF00024C01CF025C01DF02828D8B402EF0FF035
:101E000004EF0FF005EF0FF0282A2828D8B40BEFC5
:101E10000FF00DEF0FF015EF0FF02850D8A413EFCF
:101E20000FF015EF0FF027EF0FF0000E1A6E000EF7
:101E30001B6E000E1C6E000E1D6E2850D8A423EFE2
:101E40000FF025EF0FF027EF0FF0000E266E28A001
:101E50002CEF0FF02EEF0FF031EF0FF01C8E32EF62
:101E60000FF01C9ED89028301D6E26AE3AEF0FF072
:101E70003CEF0FF03DEF0FF01D8E1AC01AF01BC0A3
:101E80001BF01CC01CF01DC01DF012000450800B84
:101E90000D6E04500424136E03AE51EF0FF053EF98
:101EA0000FF054EF0FF013801350D8B45AEF0FF027
:101EB0005CEF0FF06FEF0FF01328D8A462EF0FF074
:101EC00064EF0FF06CEF0FF0000E016E000E026E6B
:101ED000000E036E000E046E038E77EF0FF0000EFF
:101EE000016E000E026E000E036E000E046E0850AE
:101EF000800B0D1A085008240E6E07AE82EF0FF00B
:101F000084EF0FF085EF0FF00E800E50D8B48BEFFA
:101F10000FF08DEF0FF0A0EF0FF00E28D8A493EF85
:101F20000FF095EF0FF09DEF0FF0000E056E000E15
:101F3000066E000E076E000E086E078EA8EF0FF0FB
:101F4000000E056E000E066E000E076E000E086E87
:101F50000E50D8B4AEEF0FF0B0EF0FF0B8EF0FF0B7
:101F60001350D8A4B6EF0FF0B8EF0FF0C2EF0FF098
:101F7000000E016E000E026E000E036E000E046E67
:101F80005AEF11F007500102F3CF18F0F4CF19F017
:101F900018500F6E106A116A126A1950146E156A81
:101FA000166A176A06500202F3CF18F0F4CF19F040
:101FB00018500F26000E102211221222195014263A
:101FC000000E15221622172205500302F3CF18F037
:101FD000F4CF19F018500F26000E102211221222F1
:101FE00019501426000E15221622172211C012F0C5
:101FF00010C011F00FC010F00F6A05500202F3CFAD
:1020000018F0F4CF19F018500F2619501022000EB6
:102010001122000E122206500102F3CF18F0F4CF65
:1020200019F018500F2619501022000E1122000E20
:10203000122211C012F010C011F00FC010F00F6A80
:1020400005500102F3CF18F0F4CF19F018500F2605
:1020500019501022000E1122000E12220750020207
:10206000F3CF18F0F4CF19F0185014261950152298
:10207000000E1622000E172206500302F3CF18F0AE
:10208000F4CF19F01850142619501522000E1622FC
:10209000000E172207500302F3CF18F0F4CF19F007
:1020A0001850096E19500A6E0B6A0C6A0BC00CF0BE
:1020B0000AC00BF009C00AF0096A095014260A5038
:1020C00015220B5016220C5017220FC009F010C019
:1020D0000AF011C00BF012C00CF0190E75EF10F0E1
:1020E000D8900C320B320A320932E82E70EF10F021
:1020F000095014260A5015220B5016220C50172294
:1021000011C012F010C011F00FC010F00F6A0E5085
:1021100013C009F00A6A0926000E0A22820E092459
:10212000186EFF0E0A20196EABEF10F0D89014361F
:1021300015361636173612AEA0EF10F0A2EF10F0DB
:10214000A3EF10F01480D8900F36103611361236E7
:102150001806D8A0190616AEB0EF10F0B2EF10F0C6
:1021600096EF10F0000E0E6E12AEB9EF10F0BBEF4E
:1021700010F0DFEF10F0FF0E0F14096EFF0E1014B9
:102180000A6EFF0E11140B6E7F0E12140C6E0950A6
:102190000A100B100C10D8B4D0EF10F0D2EF10F0E2
:1021A000D6EF10F0010E0E6EDFEF10F014A0DBEF93
:1021B00010F0DDEF10F0DFEF10F0D2EF10F00E5066
:1021C000D8B4E5EF10F0E7EF10F00BEF11F0010ECF
:1021D0001426000E15221622172217A0F2EF10F077
:1021E000F4EF10F00BEF11F014C009F015C00AF075
:1021F00016C00BF017C00CF00C340C320B320A3244
:10220000093209C014F00AC015F00BC016F00CC05A
:1022100017F0184A192A19BE16EF11F0195008E1E3
:102220001828D8A016EF11F018EF11F022EF11F0D6
:10223000000E146E000E156E800E166E7F0E176E59
:1022400050EF11F019BE2FEF11F0195006E11804EC
:10225000D8B02DEF11F02FEF11F03BEF11F0000E81
:10226000146E000E156E000E166E000E176E000E28
:102270000D6E50EF11F018C013F0FF0E1416FF0E84
:1022800015167F0E1616000E171613A04AEF11F042
:102290004CEF11F04DEF11F0168ED8901330176EF1
:1022A0000D50171214C001F015C002F016C003F053
:1022B00017C004F012002AC04BF02BC04CF02CC009
:1022C0004DF02DC04EF0000E4B142E6E000E4C142F
:1022D0002F6E800E4D14306E7F0E4E14316E800EB8
:1022E000301809E17F0E31182E102F10D8A47BEF83
:1022F00011F07DEF11F0ADEF11F0FF0E4B142E6ECB
:10230000FF0E4C142F6E7F0E4D14306E000E4E14C7
:10231000316E2E502F1030103110D8A492EF11F0E2
:1023200094EF11F09BEF11F04EBE9BEF11F099EF7F
:1023300011F0A3EF11F0FF0E4B12FF0E4C127F0EA7
:102340004D12000E4E124BC02AF04CC02BF04DC067
:102350002CF04EC02DF049EF13F04EBEBCEF11F043
:102360004E504D104C1006E14B04D8B0BAEF11F0AE
:10237000BCEF11F0F3EF11F0FF0E4B142E6EFF0EB9
:102380004C142F6EFF0E4D14306E7F0E4E14316EB6
:102390002E502F1030103110D8A4D1EF11F0D3EF00
:1023A00011F0DDEF11F0000E2A6E000E2B6E000E04
:1023B0002C6E000E2D6E49EF13F04EBEE4EF11F0BF
:1023C000E2EF11F0F3EF11F0000E0101996F210E11
:1023D000986FFF0E4B6EFF0E4C6EFF0E4D6E7F0E14
:1023E0004E6EA3EF11F0170E2E6E4BC02FF04CC0A7
:1023F00030F04DC031F04EC032F02E6602EF12F0D8
:102400000AEF12F032343232313230322F322E2E85
:10241000FDEF11F02FC043F030C044F031C045F063
:1024200032C046F04350441045104610D8A41BEF6C
:1024300012F01DEF12F04DEF12F0000E376E000E8D
:10244000386E000E396E000E3A6E32EF12F0D890F0
:102450004B364C364D364E36010E3726000E38229E
:1024600039223A224DAE37EF12F039EF12F027EF52
:1024700012F0FF0E37242E6EFF0E38202F6EFF0E47
:102480003920306EFF0E3A20316E2E50435E2F50B1
:10249000445A3050455A3150465A810E4326FF0E59
:1024A0004422FF0E4522FF0E4622FF0E4B142E6ED5
:1024B000FF0E4C142F6E7F0E4D14306E000E4E1416
:1024C000316E000E2E104B6E000E2F104C6E800ED3
:1024D00030104D6E000E31104E6E43A072EF12F0B0
:1024E00074EF12F07CEF12F04B504B264C504C2204
:1024F0004D504D224E504E224634463245324432E3
:1025000043324B504B264C504C224D504D224E5096
:102510004E22000E336E000E346E000E356E000E2D
:10252000366E33C03BF034C03CF035C03DF036C0B1
:102530003EF0000E476E000E486E000E496E010E12
:102540004A6EEBEF12F0335047243F6E3450482070
:10255000406E35504920416E36504A20426E3F5001
:102560004B5C40504C5841504D584E50800A2E6E96
:102570004250800A2E58D8A0C0EF12F0C2EF12F0DD
:10258000DEEF12F03F504724336E40504820346E47
:1025900041504920356E42504A20366E3F504B5EC6
:1025A00040504C5A41504D5A42504E5A47503B268B
:1025B00048503C2249503D224A503E224B504B2627
:1025C0004C504C224D504D224E504E22D8904A3203
:1025D0004932483247324750481049104A10D8A46F
:1025E000F4EF12F0F6EF12F0A3EF12F04B504C1094
:1025F0004D104E10D8B4FFEF12F001EF13F015EFAD
:1026000013F0010E3B142E6E000E3C142F6E000EC4
:102610003D14306E000E3E14316E2E503B262F506E
:102620003C2230503D2231503E223BC02EF03CC077
:102630002FF03DC030F03EC031F031343132303215
:102640002F322E32000E2E244B6E000E2F204C6E99
:10265000000E30204D6E3F0E31204E6E43C02EF0E6
:1026600044C02FF045C030F046C031F0170ED8906E
:102670002E362F3630363136E82E37EF13F02E5007
:102680004B262F504C2230504D2231504E22A3EF7A
:1026900011F012005250800B0001646F525052240E
:1026A0006B6F51AE56EF13F058EF13F059EF13F074
:1026B0006B816B51D8B45FEF13F061EF13F076EFDD
:1026C00013F06B29D8A467EF13F069EF13F071EFE3
:1026D00013F0000E4F6E000E506E000E516E000E85
:1026E000526E518E000E526E7EEF13F0000E4F6E42
:1026F000000E506E000E516E000E526E5650800B42
:10270000641B565056246C6F55AE89EF13F08BEF57
:1027100013F08CEF13F06C816C51D8B492EF13F07E
:1027200094EF13F0A9EF13F06C29D8A49AEF13F0EB
:102730009CEF13F0A4EF13F0000E536E000E546ED6
:10274000000E556E000E566E558E000E566EB1EF91
:1027500013F0000E536E000E546E000E556E000EF8
:10276000566E5350541055105610D8A4BAEF13F0AB
:10277000BCEF13F0D4EF13F0000E4F6E000E506E4E
:10278000000E516E000E526E800E51127F0E5212CC
:10279000645152124FC04FF050C050F051C051F030
:1027A00052C052F017EF15F06B51D8A4DAEF13F0C6
:1027B000DCEF13F0E6EF13F0000E4F6E000E506EDC
:1027C000000E516E000E526E17EF15F06C516BC07B
:1027D00057F0586A575E000E585A7F0E5724656F9F
:1027E000000E5820666F4FC060F050C061F051C0BD
:1027F00062F052C063F0000E4F6E000E506E000E7D
:10280000516E000E526E000E676F000E686F000E64
:10281000696F000E6A6F000E6C6F47EF14F06C5119
:10282000D8B415EF14F017EF14F02EEF14F0D89081
:102830006037613762376337D8904F36503651363C
:1028400052366AAF26EF14F028EF14F029EF14F097
:102850004F80D8906737683769376A375350605D63
:10286000545061595550625956506359D8A03BEFA6
:1028700014F03DEF14F046EF14F06A8D5350605F92
:102880005450615B5550625B5650635B6C2B190E64
:102890006C654DEF14F04FEF14F00FEF14F0605132
:1028A000611162116311D8B458EF14F05AEF14F0AB
:1028B00072EF14F0678172EF14F0D8904F365036F3
:1028C000513652366AAF67EF14F069EF14F06AEFD1
:1028D00014F04F80D8906737683769376A376507D3
:1028E000D8A0660751AE77EF14F079EF14F05DEFE2
:1028F00014F0000E6C6F6AAF80EF14F082EF14F0EA
:10290000A6EF14F0FF0E6715576EFF0E6815586E90
:10291000FF0E6915596E7F0E6A155A6E5750581082
:1029200059105A10D8B497EF14F099EF14F09DEFA6
:1029300014F0010E6C6FA6EF14F04FA0A2EF14F08C
:10294000A4EF14F0A6EF14F099EF14F06C51D8B482
:10295000ACEF14F0AEEF14F0D2EF14F0010E4F26EE
:10296000000E50225122522252A0B9EF14F0BBEFB8
:1029700014F0D2EF14F04FC057F050C058F051C0CF
:1029800059F052C05AF05A345A32593258325732EA
:1029900057C04FF058C050F059C051F05AC052F0D3
:1029A000654B662B66BFDDEF14F0665108E16529C3
:1029B000D8A0DDEF14F0DFEF14F0EAEF14F0000E12
:1029C000666F6569000E4F6E000E506E000E516E00
:1029D000000E526E66BFF7EF14F0665106E1650512
:1029E000D8B0F5EF14F0F7EF14F005EF15F0000E86
:1029F000666F000E656F000E4F6E000E506E000E7B
:102A0000516E000E526E000E646F65C06BF06BA1CC
:102A10000CEF15F00EEF15F011EF15F0518E12EFCF
:102A200015F0519ED8906B31526EC8EF13F0120022
:102A3000D20E49EC29F03B0E11EC29F056EC29F0AE
:102A4000D30E49EC29F0000E9BEC27F0000E9BEC16
:102A500027F000019B6F9B519D6F9C6B000E9BECC0
:102A600027F000019E6F9E519C11EE6F9D51EF6FFC
:102A7000000E9BEC27F000019B6F9B519D6F9C6BA0
:102A8000000E9BEC27F000019E6F9E519C11EC6F95
:102A90009D51ED6F000E9BEC27F000019B6F9B5149
:102AA0009D6F9C6B000E9BEC27F000019E6F9E516A
:102AB0009C11EA6F9D51EB6F000E9BEC27F000011B
:102AC0009B6F9B519D6F9C6B010E9BEC27F000014F
:102AD0009E6F9E519C11E86F9D51E96F56EC29F055
:102AE000EEC001F0EFC002F0000E02BEFF0E036E5A
:102AF000046E010E56EC20F001C04FF002C050F001
:102B000003C051F004C052F0000E536E000E546E1C
:102B1000800E556E460E566E4AEC13F04FC040F1D3
:102B200050C041F151C042F152C043F1ECC001F03C
:102B3000EDC002F0000E02BEFF0E036E046E010E29
:102B400056EC20F001C04FF002C050F003C051F02D
:102B500004C052F0000E536E000E546E800E556E7F
:102B6000460E566E4AEC13F04FC03CF150C03DF19A
:102B700051C03EF152C03FF1EAC001F0EBC002F09B
:102B8000000E02BEFF0E036E046E010E56EC20F026
:102B900001C04FF002C050F003C051F004C052F029
:102BA000000E536E000E546E800E556E460E566E1D
:102BB0004AEC13F04FC038F150C039F151C03AF12E
:102BC00052C03BF1E8C001F0E9C002F0000E02BEC5
:102BD000FF0E036E046E010E56EC20F001C04FF0A4
:102BE00002C050F003C051F004C052F0000E536E0A
:102BF000000E546E030E556E430E566E4AEC13F0E3
:102C00004FC02CF150C02DF151C02EF152C02FF108
:102C100038C105F039C106F03AC107F03BC108F0F0
:102C200038C101F039C102F03AC103F03BC104F0F0
:102C300046EC0FF001C01EF002C01FF003C020F0F0
:102C400004C021F040C105F041C106F042C107F0C7
:102C500043C108F040C101F041C102F042C103F09C
:102C600043C104F046EC0FF001C01AF002C01BF0A3
:102C700003C01CF004C01DF0E6EC0CF01AC02AF0F2
:102C80001BC02BF01CC02CF01DC02DF05BEC11F014
:102C90002AC053F02BC054F02CC055F02DC056F074
:102CA0003CC14FF03DC150F03EC151F03FC152F028
:102CB0004AEC13F04FC09FF050C0A0F051C0A1F0FB
:102CC00052C0A2F09FC05BF0A0C05CF0A1C05DF05C
:102CD000A2C05EF02EEC09F05BC0A3F05CC0A4F0D3
:102CE0005DC0A5F05EC0A6F0330E056E330E066E15
:102CF000650E076E420E086EA3C001F0A4C002F07C
:102D0000A5C003F0A6C004F046EC0FF001C01AF015
:102D100002C01BF003C01CF004C01DF0000E1E6EAC
:102D2000000E1F6E000E206E410E216EE6EC0CF0C0
:102D30001AC024F11BC025F11CC026F11DC027F1CB
:102D400020C16DF021C16EF022C16FF023C170F07F
:102D50009AC171F09BC172F09CC173F09DC174F077
:102D60002CC175F02DC176F02EC177F02FC178F00F
:102D700024C179F025C17AF026C17BF027C17CF00F
:102D800063EC1EF000C120F101C121F102C122F16A
:102D900003C123F104C19AF105C19BF106C19CF165
:102DA00007C19DF120C197F021C198F022C199F08F
:102DB00023C19AF01200D00E49EC29F03B0E11EC21
:102DC00029F056EC29F0D10E49EC29F0000E9BECCD
:102DD00027F0000E9BEC27F000019B6F9B519D6F2D
:102DE0009C6B000E9BEC27F000019E6F9E519C1186
:102DF000F66F9D51F76F000E9BEC27F000019B6F63
:102E00009B519D6F9C6B000E9BEC27F000019E6F09
:102E10009E519C11F46F9D51F56F000E9BEC27F0B5
:102E200000019B6F9B519D6F9C6B000E9BEC27F0EC
:102E300000019E6F9E519C11F26F9D51F36F000E29
:102E40009BEC27F000019B6F9B519D6F9C6B010ECB
:102E50009BEC27F000019E6F9E519C11F06F9D51DD
:102E6000F16F56EC29F0F6C001F0F7C002F0000E49
:102E700002BEFF0E036E046E010E56EC20F001C080
:102E80004FF002C050F003C051F004C052F0000EE9
:102E9000536E000E546E800E556E460E566E4AEC02
:102EA00013F04FC060F150C061F151C062F152C0E7
:102EB00063F1F4C001F0F5C002F0000E02BEFF0E97
:102EC000036E046E010E56EC20F001C04FF002C0FC
:102ED00050F003C051F004C052F0000E536E000ECB
:102EE000546E800E556E460E566E4AEC13F04FC06F
:102EF0005CF150C05DF151C05EF152C05FF1F2C0B3
:102F000001F0F3C002F0000E02BEFF0E036E046E6D
:102F1000010E56EC20F001C04FF002C050F003C08B
:102F200051F004C052F0000E536E000E546E800E2D
:102F3000556E460E566E4AEC13F04FC058F150C015
:102F400059F151C05AF152C05BF1F0C001F0F1C02B
:102F500002F0000E02BEFF0E036E046E010E56EC70
:102F600020F001C04FF002C050F003C051F004C087
:102F700052F0000E536E000E546E030E556E430E4B
:102F8000566E4AEC13F04FC054F150C055F151C089
:102F900056F152C057F158C105F059C106F05AC157
:102FA00007F05BC108F058C101F059C102F05AC1E5
:102FB00003F05BC104F046EC0FF001C01EF002C04C
:102FC0001FF003C020F004C021F05CC105F05DC11A
:102FD00006F05EC107F05FC108F05CC101F05DC1A1
:102FE00002F05EC103F05FC104F046EC0FF001C0D7
:102FF0001AF002C01BF003C01CF004C01DF0E6EC88
:103000000CF01AC02AF01BC02BF01CC02CF01DC005
:103010002DF05BEC11F02AC053F02BC054F02CC003
:1030200055F02DC056F060C14FF061C150F062C143
:1030300051F063C152F04AEC13F04FC09FF050C002
:10304000A0F051C0A1F052C0A2F09FC05BF0A0C0A0
:103050005CF0A1C05DF0A2C05EF02EEC09F05BC098
:10306000A3F05CC0A4F05DC0A5F05EC0A6F0A3C054
:1030700001F0A4C002F0A5C003F0A6C004F0330E16
:10308000056E330E066E650E076E420E086E46EC38
:103090000FF001C050F102C051F103C052F104C061
:1030A00053F148C16DF049C16EF04AC16FF04BC198
:1030B00070F0A6C171F0A7C172F0A8C173F0A9C1E8
:1030C00074F054C175F055C176F056C177F057C110
:1030D00078F050C179F051C17AF052C17BF053C100
:1030E0007CF05CEC1DF008C148F109C149F10AC14E
:1030F0004AF10BC14BF10CC1A6F10DC1A7F10EC1F4
:10310000A8F10FC1A9F148C197F049C198F04AC18F
:1031100099F04BC19AF0120032C0E0F033C0E1F0F8
:1031200034C0E2F035C0E3F0E0C001F0E1C002F0ED
:10313000E2C003F0E3C004F0000E056E000E066E60
:10314000000E076E3F0E086E46EC0FF001C088F1CE
:1031500002C089F103C08AF104C08BF19A0E056E9A
:10316000990E066E990E076E3E0E086EDCC01EF0BC
:10317000DDC01FF0DEC020F0DFC021F0E0C01AF09B
:10318000E1C01BF0E2C01CF0E3C01DF0E6EC0CF067
:103190001AC001F01BC002F01CC003F01DC004F0F7
:1031A00046EC0FF001C036F002C037F003C038F033
:1031B00004C039F036C01AF037C01BF038C01CF01C
:1031C00039C01DF08CC11EF08DC11FF08EC120F0E2
:1031D0008FC121F0E6EC0CF01AC0D8F01BC0D9F07A
:1031E0001CC0DAF01DC0DBF0000E1A6E000E1B6E64
:1031F000800E1C6E3F0E1D6ED8C01EF0D9C01FF091
:10320000DAC020F0DBC021F01BEC23F0D8B00BEFCC
:1032100019F00DEF19F018EF19F0000E0001D86F3A
:10322000000ED96F800EDA6F3F0EDB6F3AEF19F0A8
:10323000D8C01AF0D9C01BF0DAC01CF0DBC01DF0FA
:10324000000E1E6E000E1F6E800E206EBF0E216ED1
:103250001BEC23F0D8B02FEF19F031EF19F03AEF53
:1032600019F0000E0001D86F000ED96F800EDA6FD2
:10327000BF0EDB6FDCC02EF0DDC02FF0DEC030F003
:10328000DFC031F0E0C02AF0E1C02BF0E2C02CF04A
:10329000E3C02DF0BEEC27F02AC001F02BC002F0F5
:1032A0002CC003F02DC004F0A60E056E9B0E066E1A
:1032B000C40E076E3A0E086E46EC0FF001C084F1A2
:1032C00002C085F103C086F104C087F1D8C01EF0AA
:1032D000D9C01FF0DAC020F0DBC021F088C11AF09D
:1032E00089C11BF08AC11CF08BC11DF0E6EC0CF00B
:1032F0001AC03AF01BC03BF01CC03CF01DC03DF0B2
:103300003AC02AF03BC02BF03CC02CF03DC02DF061
:1033100084C12EF085C12FF086C130F087C131F015
:10332000BEEC27F02AC080F12BC081F12CC082F1C5
:103330002DC083F1000E1A6E000E1B6E800E1C6EE7
:103340003F0E1D6E80C11EF081C11FF082C120F0B2
:1033500083C121F01BEC23F0D8B0B1EF19F0B3EF2B
:1033600019F0BEEF19F0000E0101806F000E816FA1
:10337000800E826F3F0E836FE0EF19F080C11AF06C
:1033800081C11BF082C11CF083C11DF0000E1E6EB6
:10339000000E1F6E800E206EBF0E216E1BEC23F000
:1033A000D8B0D5EF19F0D7EF19F0E0EF19F0000E13
:1033B0000101806F000E816F800E826FBF0E836FE0
:1033C000D8C08CF1D9C08DF1DAC08EF1DBC08FF19D
:1033D000E0C0DCF0E1C0DDF0E2C0DEF0E3C0DFF031
:1033E00080C132F081C133F082C134F083C135F045
:1033F00012000001B451D96EDA6ADFCFF6FF080E71
:10340000F76E0800F550250AD8A409EF1AF00BEF63
:103410001AF016EF1BF0B451D96EDA6ADF2A000EEB
:10342000E56F000EE46FE4C0F8F0E669E769B451B7
:10343000D96EDA6ADFCFF6FF080EF76E0800F55096
:103440002E0AD8A426EF1AF028EF1AF038EF1AF057
:10345000B451D96EDA6ADF2AB4C007F0B5C008F0FB
:10346000B6C009F090EC25F007C0E6F008C0E7F020
:103470000001B451D96EDA6ADF50BC6FBCC0F6FFF0
:10348000080EF76E0800F550640AD8B44AEF1AF037
:103490004CEF1AF05AEF1AF0BCC0F6FF080EF76EA8
:1034A0000800F550690AD8A458EF1AF05AEF1AF03C
:1034B00078EF1AF0B5C0D9FFB6C0DAFF020EDF26EA
:1034C000DF5CD96EDA6ADECFB7F0DECFB8F0B45188
:1034D000D96EDA6ABC29DF6EB2C01AF0B3C01BF035
:1034E000B7C01CF0B8C01DF030EC21F029EF1BF084
:1034F000B451D96EDA6ADF50BC6FBCC0F6FF080E5B
:10350000F76E0800F5CFBBF091EF1AF0BC2BA0EFDF
:103510001AF06C0EBB6FA0EF1AF0000EBB6FA0EF9D
:103520001AF0BB514C0AD8B486EF1AF02A0AD8B464
:1035300089EF1AF00A0AD8B486EF1AF08DEF1AF064
:10354000BCC0F6FF080EF76E0800F550660AD8A456
:10355000ACEF1AF0AEEF1AF00FEF1BF0DAEF1AF043
:10356000B5C0D9FFB6C0DAFFDFCF5FF0040EDF26AB
:103570005F50D96EDA6ADECFB7F0DECFB8F0DECFBB
:10358000B9F0DECFBAF0E5EF1AF0B5C0D9FFB6C09A
:10359000DAFFDFCF5FF0040EDF265F50D96EDA6A04
:1035A000DECFB7F0DECFB8F0DECFB9F0DECFBAF0C5
:1035B000E5EF1AF0BB514C0AD8B4C5EF1AF0200A57
:1035C000D8B4B0EF1AF0E5EF1AF0B451D96EDA6A58
:1035D000BC29DF6E03EF1BF0B2C07DF0B3C07EF0FC
:1035E000B7C07FF0B8C080F0B9C081F0BAC082F037
:1035F000BCC0F6FF080EF76E0800F5CF83F036EC7E
:1036000004F029EF1BF0BCC0F6FF080EF76E0800AF
:10361000F550660AD8B4ECEF1AF00FEF1BF000017A
:10362000B451D96EDA6ADF2A29EF1BF0B451D96E92
:10363000DA6ADFCFF6FF080EF76E0800F550016E6C
:10364000026AB2C003F0B3C004F01CEC24F00FEF28
:103650001BF0120032C0D4F033C0D5F034C0D6F025
:1036600035C0D7F0D4C001F0D5C002F0D6C003F009
:10367000D7C004F0000E056E000E066EC80E076E71
:10368000410E086E46EC0FF001C06CF102C06DF106
:1036900003C06EF104C06FF16F0E056E120E066E60
:1036A000830E076E3A0E086E74C11EF075C11FF0CE
:1036B00076C120F077C121F0D4C01AF0D5C01BF03C
:1036C000D6C01CF0D7C01DF0E6EC0CF01AC001F01B
:1036D0001BC002F01CC003F01DC004F046EC0FF04C
:1036E00001C036F002C037F003C038F004C039F032
:1036F00036C01AF037C01BF038C01CF039C01DF0BE
:1037000070C11EF071C11FF072C120F073C121F0B1
:10371000E6EC0CF01AC0D0F01BC0D1F01CC0D2F007
:103720001DC0D3F0000E1A6E400E1B6E9C0E1C6E58
:10373000450E1D6ED0C01EF0D1C01FF0D2C020F0CB
:10374000D3C021F01BEC23F0D8B0A9EF1BF0ABEFF6
:103750001BF0B6EF1BF0000E0001D06F400ED16FD2
:103760009C0ED26F450ED36FD8EF1BF0D0C01AF06D
:10377000D1C01BF0D2C01CF0D3C01DF0000E1E6ED5
:10378000400E1F6E9C0E206EC50E216E1BEC23F0AA
:10379000D8B0CDEF1BF0CFEF1BF0D8EF1BF0000E31
:1037A0000001D06F400ED16F9C0ED26FC50ED36F4B
:1037B00074C12EF075C12FF076C130F077C131F0B1
:1037C000D4C02AF0D5C02BF0D6C02CF0D7C02DF035
:1037D000BEEC27F02AC001F02BC002F02CC003F091
:1037E0002DC004F09A0E056E990E066E190E076E26
:1037F0003E0E086E46EC0FF001C068F102C069F1A0
:1038000003C06AF104C06BF1D0C01EF0D1C01FF03C
:10381000D2C020F0D3C021F06CC11AF06DC11BF0F2
:103820006EC11CF06FC11DF0E6EC0CF01AC03AF04E
:103830001BC03BF01CC03CF01DC03DF03AC02AF05C
:103840003BC02BF03CC02CF03DC02DF068C12EF0E9
:1038500069C12FF06AC130F06BC131F0BEEC27F0C6
:103860002AC064F12BC065F12CC066F12DC067F150
:10387000D0C070F1D1C071F1D2C072F1D3C073F178
:10388000D4C074F1D5C075F1D6C076F1D7C077F148
:1038900064C132F065C133F066C134F067C135F000
:1038A000120010C179F011C17AF012C17BF013C17E
:1038B0007CF05BC079F05CC07AF05DC07BF05EC0EC
:1038C0007CF0810E00016D6FFF0E6E6F79C06FF09E
:1038D0007AC070F07BC071F07CC072F0180E76EF89
:1038E0001CF0D8907233713370336F33E82E71EF60
:1038F0001CF06F516D25776F000E6E21786F78BFC9
:103900008BEF1CF0785109E1170E775DD8A08BEF93
:103910001CF08DEF1CF097EF1CF05BC05BF05CC0FF
:103920005CF05DC05DF05EC05EF05BEF1DF078BFE7
:103930009CEF1CF09EEF1CF00FEF1DF077C06DF0B8
:10394000FF0E6E6FFF0E6F6F7F0E706F000E716F48
:103950006D67ADEF1CF0B5EF1CF07135713370334E
:103960006F336E336D2FA8EF1CF06EC073F06FC015
:1039700074F070C075F071C076F000017351791564
:103980006D6F74517A156E6F75517B156F6F76512F
:103990007C15706F6D516E116F117011D8A4D3EF3B
:1039A0001CF0D5EF1CF0D7EF1CF08DEF1CF079C0A8
:1039B0006DF07AC06EF07BC06FF07CC070F0200EAE
:1039C000E7EF1CF0D89070336F336E336D33E82E11
:1039D000E2EF1CF06D516E116F117011D8B4F3EF5E
:1039E0001CF0F5EF1CF0FDEF1CF0735179277451BA
:1039F0007A2375517B2376517C23731D6D6F741D63
:103A00006E6F751D6F6F761D706F6D5179176E51EA
:103A10007A176F517B1770517C1753EF1DF079C0E7
:103A20006DF07AC06EF07BC06FF07CC070F0200E3D
:103A30001FEF1DF0D89070336F336E336D33E82E67
:103A40001AEF1DF06D516E116F117011D8A42BEF8C
:103A50001DF02DEF1DF037EF1DF0000E796F000EF9
:103A60007A6F000E7B6F000E7C6F53EF1DF0D890C5
:103A700079356D6F7A356E6F7B356F6F7C35706F12
:103A80006D516E116F117011D8B449EF1DF04BEFED
:103A90001DF053EF1DF0000E796F000E7A6F800E4F
:103AA0007B6FBF0E7C6F79C05BF07AC05CF07BC02F
:103AB0005DF07CC05EF012006F0E056E120E066E99
:103AC000830E076E3B0E086E75C001F076C002F0E3
:103AD00077C003F078C004F046EC0FF001C01AF094
:103AE00002C01BF003C01CF004C01DF06DC01EF02E
:103AF0006EC01FF06FC020F070C021F0E6EC0CF03B
:103B00001AC06DF01BC06EF01CC06FF01DC070F0CD
:103B100071C01AF072C01BF073C01CF074C01DF0AD
:103B2000BD0E1E6E370E1F6E860E206E390E216E74
:103B3000E6EC0CF01AC071F01BC072F01CC073F000
:103B40001DC074F0000E056E000E066E800E076E2E
:103B50003F0E086E71C001F072C002F073C003F036
:103B600074C004F046EC0FF001C04FF002C050F0FA
:103B700003C051F004C052F00A0E1E6ED70E1F6E25
:103B8000230E206E3C0E216E71C01AF072C01BF025
:103B900073C01CF074C01DF0E6EC0CF01AC053F0BA
:103BA0001BC054F01CC055F01DC056F04AEC13F079
:103BB0004FC044F150C045F151C046F152C047F1E9
:103BC00044C105F045C106F046C107F047C108F001
:103BD0006DC02EF06EC02FF06FC030F070C031F0AD
:103BE00079C02AF07AC02BF07BC02CF07CC02DF07D
:103BF000BEEC27F02AC001F02BC002F02CC003F06D
:103C00002DC004F046EC0FF001C05BF002C05CF088
:103C100003C05DF004C05EF05BC01AF05CC01BF036
:103C20005DC01CF05EC01DF06DC01EF06EC01FF0C8
:103C30006FC020F070C021F0E6EC0CF01AC06DF0FF
:103C40001BC06EF01CC06FF01DC070F044C12EF0A0
:103C500045C12FF046C130F047C131F0000E2A6E49
:103C6000000E2B6E800E2C6E3F0E2D6EBEEC27F0DC
:103C70002AC001F02BC002F02CC003F02DC004F0CC
:103C800071C005F072C006F073C007F074C008F090
:103C900046EC0FF001C071F002C072F003C073F087
:103CA00004C074F06DC008F16EC009F16FC00AF174
:103CB00070C00BF171C00CF172C00DF173C00EF148
:103CC00074C00FF112006F0E056E120E066E830E99
:103CD000076E3B0E086E75C001F076C002F077C02B
:103CE00003F078C004F046EC0FF001C01AF002C0F7
:103CF0001BF003C01CF004C01DF06DC01EF06EC0B0
:103D00001FF06FC020F070C021F0E6EC0CF01AC07C
:103D10006DF01BC06EF01CC06FF01DC070F071C064
:103D20001AF072C01BF073C01CF074C01DF0BD0E01
:103D30001E6E370E1F6E860E206E390E216EE6EC5B
:103D40000CF01AC071F01BC072F01CC073F01DC0E3
:103D500074F0000E056E000E066E800E076E3F0EAC
:103D6000086E71C001F072C002F073C003F074C03D
:103D700004F046EC0FF001C04FF002C050F003C059
:103D800051F004C052F00A0E1E6ED70E1F6E230EA5
:103D9000206E3C0E216E71C01AF072C01BF073C011
:103DA0001CF074C01DF0E6EC0CF01AC053F01BC000
:103DB00054F01CC055F01DC056F04AEC13F04FC033
:103DC0001CF150C01DF151C01EF152C01FF11CC1A9
:103DD00005F01DC106F01EC107F01FC108F06DC03F
:103DE0002EF06EC02FF06FC030F070C031F079C08F
:103DF0002AF07AC02BF07BC02CF07CC02DF0BEECFA
:103E000027F02AC001F02BC002F02CC003F02DC017
:103E100004F046EC0FF001C05BF002C05CF003C0A0
:103E20005DF004C05EF05BC01AF05CC01BF05DC0CA
:103E30001CF05EC01DF06DC01EF06EC01FF06FC0A4
:103E400020F070C021F0E6EC0CF01AC06DF01BC041
:103E50006EF01CC06FF01DC070F01CC12EF01DC1B3
:103E60002FF01EC130F01FC131F0000E2A6E000E7F
:103E70002B6E800E2C6E3F0E2D6EBEEC27F02AC0EE
:103E800001F02BC002F02CC003F02DC004F071C073
:103E900005F072C006F073C007F074C008F046EC7D
:103EA0000FF001C071F002C072F003C073F004C0E3
:103EB00074F06DC000F16EC001F16FC002F170C00E
:103EC00003F171C004F172C005F173C006F174C052
:103ED00007F1120051EC29F002EC29F0EFEC21F08F
:103EE000C3EC28F0AAEC28F09396939895929590BD
:103EF000000E0201796F000E786F18EC15F097C074
:103F00007CF198C07DF199C07EF19AC07FF17CC1AF
:103F100032F07DC133F07EC134F07FC135F02AEC40
:103F20001BF032C064F133C065F134C066F135C0B6
:103F300067F164C101F065C102F066C103F067C1B9
:103F400004F098EC22F001C00BF002C00CF076EC0B
:103F500028F00BC07AF20CC07BF2000E1A6E000E35
:103F60001B6E000E1C6E000E1D6E64C11EF065C13E
:103F70001FF066C120F067C121F01BEC23F0D8B020
:103F8000C4EF1FF0C6EF1FF0CFEF1FF07AC208F0AA
:103F90007BC209F0010EE4EC25F0D6EF1FF07AC2E7
:103FA00008F07BC209F0000EE4EC25F0DBEC16F023
:103FB00097C094F198C095F199C096F19AC097F185
:103FC00094C132F095C133F096C134F097C135F009
:103FD0008CEC18F032C080F133C081F134C082F132
:103FE00035C083F180C101F081C102F082C103F0CC
:103FF00083C104F098EC22F001C00BF002C00CF079
:1040000076EC28F00BC07CF20CC07DF2000E1A6E2C
:10401000000E1B6E000E1C6E000E1D6E80C11EF089
:1040200081C11FF082C120F083C121F01BEC23F07D
:10403000D8B01DEF20F01FEF20F028EF20F07CC259
:1040400001F07DC202F0000EA3EC26F02FEF20F06D
:104050007CC201F07DC202F0010EA3EC26F0500EEE
:104060000001C36F020EC46F350EC56F94C1C6F058
:1040700095C1C7F096C1C8F097C1C9F07CC1CAF01C
:104080007DC1CBF07EC1CCF07FC1CDF078C2CEF047
:1040900079C2CFF0FFEC26F0500E026E020E036ED6
:1040A00003EC28F07DEF1FF000EF00F0096E0950DF
:1040B000D8B45DEF20F05FEF20F081EF20F004BE78
:1040C00066EF20F064EF20F081EF20F001C005F0F2
:1040D00002C006F003C007F004C008F0051E061E6B
:1040E000071E081E052A000E06220722082205C008
:1040F0000BF006C00CF007C00DF008C00EF089EF01
:1041000020F001C00BF002C00CF003C00DF004C0A1
:104110000EF00150021003100410D8A492EF20F00A
:1041200094EF20F09EEF20F0000E016E000E026E64
:10413000000E036E000E046E2FEF21F0960E0A6E35
:10414000A8EF20F00A2AD8900E320D320C320B3232
:10415000000E0B14056E000E0C14066E000E0D14EE
:10416000076EFE0E0E14086E05500610071008109C
:10417000D8A4BDEF20F0BFEF20F0A2EF20F0CDEFEC
:1041800020F00A2A010E0B26000E0C220D220E2210
:10419000D8900E320D320C320B32000E0B14056E1D
:1041A000000E0C14066E000E0D14076EFF0E0E149A
:1041B000086E0550061007100810D8A4E2EF20F092
:1041C000E4EF20F0C1EF20F0ECEF20F00A06D890E9
:1041D0000B360C360D360E360DBEF1EF20F0F3EF38
:1041E00020F0FBEF20F0020E0A60F9EF20F0FBEF69
:1041F00020F0E6EF20F00AB000EF21F002EF21F00E
:1042000003EF21F00D9ED8900A320AC005F0066A2D
:10421000076A086A05C008F0076A066A056A055059
:104220000B1206500C1207500D1208500E120950B6
:10423000D8B41DEF21F01FEF21F027EF21F004BECD
:1042400026EF21F024EF21F027EF21F00E8E0BC096
:1042500001F00CC002F00DC003F00EC004F012001B
:104260001DBE35EF21F038EF21F0010E39EF21F0BE
:10427000000E246E0001E7BF42EF21F040EF21F075
:1042800048EF21F0000E236E010E226E4CEF21F05C
:10429000E6C022F0E7C023F0E4C020F0E5C021F042
:1042A0002450D8B456EF21F058EF21F06FEF21F0F1
:1042B0002006D8A021062450D8A461EF21F063EF96
:1042C00021F069EF21F0000E1F6E2B0E1E6E6DEFB8
:1042D00021F0000E1F6E2D0E1E6E1EC024F0000E6B
:1042E000266E4F0E256E000E02014F6FA8EF21F0D3
:1042F0002506D8A02606000E2524D96E020E2620FB
:10430000DA6E1CC001F01DC002F0000E046E0A0E31
:10431000036EE3EC24F001C00BF002C00CF076EC6D
:1043200028F00B50300FDF6E2206D8A0230620069F
:10433000D8A021061CC001F01DC002F0000E046EC2
:104340000A0E036E81EC24F001C01CF002C01DF0C7
:1043500026BEB3EF21F0265008E12504D8A0B3EF24
:1043600021F0B5EF21F0CBEF21F01C501D10D8A4A7
:10437000BCEF21F0BEEF21F078EF21F023BECBEFB0
:1043800021F0235006E12204D8B0C9EF21F0CBEF91
:1043900021F078EF21F02450D8B4D1EF21F0D3EF01
:1043A00021F0DEEF21F02506D8A02606000E2524F8
:1043B000D96E020E2620DA6E24C0DFFF1AC011F07B
:1043C0001BC012F0000E2524136E020E2620146E60
:1043D00020C015F021C016F06CEC26F01200020E81
:1043E000056E040E046EBA0EE82EFED7042EFCD71E
:1043F000052EFAD700D02AEC29F0D00E49EC29F08E
:10440000190E11EC29F0070E11EC29F056EC29F0E9
:10441000D00E49EC29F06B0E11EC29F0010E11ECD5
:1044200029F056EC29F0D00E49EC29F01A0E11ECC7
:1044300029F0000E11EC29F056EC29F0D00E49ECD1
:1044400029F01C0E11EC29F0000E11EC29F056ECAD
:1044500029F0D00E49EC29F01B0E11EC29F0180EB2
:1044600011EC29F056EC29F0D00E49EC29F0380E69
:1044700011EC29F0010E11EC29F056EC29F0D00EC8
:1044800049EC29F0230E11EC29F04F0E11EC29F024
:1044900056EC29F0D20E49EC29F0190E11EC29F056
:1044A000070E11EC29F056EC29F0D20E49EC29F058
:1044B0006B0E11EC29F0010E11EC29F056EC29F0ED
:1044C000D20E49EC29F01A0E11EC29F0000E11EC75
:1044D00029F056EC29F0D20E49EC29F01C0E11EC13
:1044E00029F0000E11EC29F056EC29F0D20E49EC1F
:1044F00029F01B0E11EC29F0180E11EC29F056ECE6
:1045000029F0D20E49EC29F0380E11EC29F0010EF9
:1045100011EC29F056EC29F0D20E49EC29F0230ECB
:1045200011EC29F02F0E11EC29F056EC29F01200B5
:10453000033404340A6E0A50D8A4A1EF22F0A3EF8A
:1045400022F0ADEF22F0000E016E000E026E000EA2
:10455000036E000E046E1AEF23F001C005F002C0D6
:1045600006F003C007F004C008F0200EBDEF22F0F3
:10457000D8900832073206320532E82EB8EF22F022
:104580000550096E038EFF0E0116FF0E0216FF0E78
:104590000316000E0416960E0A5E0ABED4EF22F031
:1045A000D2EF22F0EAEF22F00A50800A970FD8B03B
:1045B000DCEF22F0DEEF22F0E0EF22F0A3EF22F0BA
:1045C000D89004320332023201320A3EE0EF22F088
:1045D00002EF23F01F0E0A64F0EF22F0F2EF22F058
:1045E000FAEF22F0A3EF22F0D8900136023603361C
:1045F00004360A060A50D8A400EF23F002EF23F095
:10460000F4EF22F00950D8B408EF23F00AEF23F0BA
:1046100012EF23F0041E031E021E016C000E022284
:104620000322042201C001F002C002F003C003F023
:1046300004C004F01200000E1A14226E000E1B14A7
:10464000236E800E1C14246E7F0E1D14256E2250C6
:10465000231024102510D8A430EF23F032EF23F0DC
:104660003AEF23F0000E1A6E000E1B6E000E1C6E49
:10467000000E1D6E000E1E14226E000E1F14236EFF
:10468000800E2014246E7F0E2114256E22502310DC
:1046900024102510D8A44FEF23F051EF23F059EF49
:1046A00023F0000E1E6E000E1F6E000E206E000E18
:1046B000216E1DAE5EEF23F060EF23F069EF23F073
:1046C0001A6C1B1ED8B01B2A1C1ED8B01C2A800EC8
:1046D0001D5621AE6EEF23F070EF23F079EF23F03B
:1046E0001E6C1F1ED8B01F2A201ED8B0202A800E94
:1046F0002156000E1A1A000E1B1A000E1C1A800EEC
:104700001D1A000E1E1A000E1F1A000E201A800E0F
:10471000211A1E501A5C1F501B5820501C58215043
:104720001D58D8B096EF23F098EF23F09BEF23F0BD
:10473000D8909CEF23F0D880120018C10BF019C15B
:104740000CF01AC10DF01BC10EF001C00BF002C03D
:104750000CF003C00DF004C00EF00BC005F00CC04F
:1047600006F00DC007F00EC008F0180EBDEF23F0E4
:10477000D8900832073206320532E82EB8EF23F01F
:104780000550096E0A6A09500A10D8A4CAEF23F02E
:10479000CCEF23F0ECEF23F0D8900B34056E0C3403
:1047A000066E0D34076E0E34086E055006100710A5
:1047B0000810D8A4DEEF23F0E0EF23F0E6EF23F0BB
:1047C000000E026E020E016E1BEF24F0000E026E50
:1047D000030E016E1BEF24F009280A10D8A4F3EF92
:1047E00023F0F5EF23F017EF24F00BC005F00CC019
:1047F00006F00DC007F00EC008F0090ED89005367F
:10480000063607360836E82EFEEF23F00550061070
:1048100007100810D8B40FEF24F012EF24F0010EA7
:1048200013EF24F0000E016E026A1BEF24F0000E5D
:10483000026E040E016E120003500410D8B423EF70
:1048400024F025EF24F02EEF24F003500410D8A418
:104850002CEF24F02EEF24F033EF24F001505AEC2B
:1048600029F080EF24F020EE0AF00350D9260450FE
:10487000DA22DE50DE10D8B440EF24F042EF24F00C
:104880005DEF24F020EE0AF00350D9260450DA221E
:1048900010EE03F00350E1260450E222DE50E65C05
:1048A000E650800A096EDE50800A0958D8B05BEFE6
:1048B00024F05DEF24F080EF24F020EE03F00350AD
:1048C000D9260450DA22DECF05F0DDCF06F003C092
:1048D000D9FF04C0DAFFDECF07F0DDCF08F00550C6
:1048E0000724D96E06500820DA6E01C0DFFF20EEE3
:1048F00003F00350D9260450DA22DE2A000EDD220E
:104900001200000E066E04BE8AEF24F088EF24F039
:1049100090EF24F0036C041ED8B0042A010E066E3A
:1049200002BE97EF24F095EF24F09DEF24F0016C88
:10493000021ED8B0022A010E061A000E086E000EE2
:10494000076E03500410D8B4A8EF24F0AAEF24F0A7
:10495000D2EF24F0010E056EB2EF24F0D8900336AA
:104960000436052A04AEB7EF24F0B9EF24F0AEEF19
:1049700024F0D890073608360350015C04500258E2
:10498000D8A0C5EF24F0C7EF24F0CCEF24F00350FB
:10499000015E0450025A0780D89004320332052E7B
:1049A000B9EF24F00650D8B4D8EF24F0DAEF24F0B1
:1049B000DEEF24F0076C081ED8B0082A07C001F00B
:1049C00008C002F01200000E066E02BEECEF24F0EA
:1049D000EAEF24F0F2EF24F0016C021ED8B0022AB4
:1049E000010E066E04BEF9EF24F0F7EF24F0FDEFA0
:1049F00024F0036C041ED8B0042A03500410D8B469
:104A000004EF25F006EF25F02AEF25F0010E056EE4
:104A10000EEF25F0D89003360436052A04AE13EFC6
:104A200025F015EF25F00AEF25F00350015C045046
:104A30000258D8A01EEF25F020EF25F024EF25F036
:104A40000350015E0450025AD89004320332052EFE
:104A500015EF25F00650D8B430EF25F032EF25F0F1
:104A600036EF25F0016C021ED8B0022A01C001F019
:104A700002C002F01200000E0114096E000E0214B2
:104A80000A6E800E03140B6E7F0E04140C6E095018
:104A90000A100B100C10D8A450EF25F052EF25F09F
:104AA0005AEF25F0000E016E000E026E000E036E2E
:104AB000000E046E000E0514096E000E06140A6E38
:104AC000800E07140B6E7F0E08140C6E09500A102E
:104AD0000B100C10D8A46FEF25F071EF25F079EFD3
:104AE00025F0000E056E000E066E000E076E000E1D
:104AF000086E055001180FE1065002180CE107502E
:104B0000031809E108500418D8B489EF25F08BEF99
:104B100025F08EEF25F0D8908FEF25F0D880120089
:104B2000000E0C6E000E0B6E0750D96EDA6ADFCFE6
:104B3000F6FF080EF76E0800F5502A0AD8A4A3EF76
:104B400025F0A5EF25F0CCEF25F00750D96EDA6AF5
:104B5000DF2A08C0D9FF09C0DAFF020EDF26DF5CBA
:104B6000D96EDA6ADECF0BF0DECF0CF0DFEF25F086
:104B70000BC001F00CC002F0000E046E0A0E036EB2
:104B8000DCEC28F00A5001240B6E000E02200C6EA3
:104B90000750D96EDA6ADF2A0750D96EDA6ADFCF9A
:104BA000F6FF080EF76E0800F550D00F0A6E090EDA
:104BB0000A64DDEF25F0DFEF25F0B8EF25F00BC03C
:104BC00007F00CC008F012000B6E949094920BB09A
:104BD00002D08B9201D08B82130E026E880E016E72
:104BE00008C003F009C004F032EC26F001C00CF05C
:104BF00002C00DF0000E0F6E000E0E6E1CEF26F0C0
:104C00008B80000E116E000E106E0AEF26F000D0A1
:104C1000104A112A0C50105C1150800A0A6E0D5077
:104C2000800A0A58D8A017EF26F019EF26F007EFF0
:104C300026F00E4A0F2A8B9008C001F009C002F03E
:104C4000000E046E1E0E036E32EC26F001500E5C58
:104C500002500F58D8A02FEF26F031EF26F000EFCA
:104C600026F01200000E076E000E066E03500410B0
:104C7000D8B43DEF26F03FEF26F067EF26F0010EA7
:104C8000056E47EF26F0D89003360436052A04AEA9
:104C90004CEF26F04EEF26F043EF26F0D890063684
:104CA00007360350015C04500258D8A05AEF26F092
:104CB0005CEF26F061EF26F00350015E0450025ACB
:104CC0000680D89004320332052E4EEF26F006C03F
:104CD00001F007C002F0120016BE73EF26F071EF6C
:104CE00026F077EF26F0000E166E000E156E000E01
:104CF000196E000E186E89EF26F0000E026E200E5F
:104D0000016E11C003F012C004F01CEC24F0184A2C
:104D1000192A1550185C1950800A176E1650800A0F
:104D20001758D8A096EF26F098EF26F07DEF26F0E2
:104D300013C00AF014C00BF011C00CF012C00DF03B
:104D4000E1EC27F01200086E08B002D08C9201D07E
:104D50008C820850FF0A036E0346034603468A50BE
:104D60000318F70B03188A6E000E056E010E046E11
:104D70008C808A88000E076E000E066EC2EF26F049
:104D8000064A072A0450065C0750800A036E055045
:104D9000800A0358D8A0CFEF26F0D1EF26F0C0EF5D
:104DA00026F08C908A98120004BED9EF26F0DBEF33
:104DB00026F0E5EF26F001C001F002C002F003C0CA
:104DC00003F004C004F0FEEF26F001C005F002C0BD
:104DD00006F003C007F004C008F0051E061E071EFB
:104DE000081E052A000E06220722082205C001F02F
:104DF00006C002F007C003F008C004F01200C60E9F
:104E00000101CE6FC3C0CFF1C4C0D0F1000ED36F8B
:104E1000000ED26F000EDA6F000ED96FCF0E0001B8
:104E2000BD6F010EBE6FC5C0BFF0CE0EC06F010ECC
:104E3000C16F76EC27F00101D2510001C325D96E74
:104E40000101D3510001C421DA6EDF6A120003C0F0
:104E50000AF004C00BF001C008F002C009F041EFF5
:104E600027F00AC0D9FF0BC0DAFFDF50076E0A4AED
:104E70000B2A08C0D9FF09C0DAFF07C0DFFF084AC4
:104E8000092A0506D8A00606052806E10628D8A4A2
:104E90004CEF27F04EEF27F031EF27F01200B80E5D
:104EA000F66E500EF76E000EF86E01EE9AF010EEF0
:104EB00034F00900F5CFEEFFE550E150FAE102EEE3
:104EC00000F0500EEE6AE806FDE101EE00F09A0EE9
:104ED000EE6AE806FDE100EED0F0290EEE6AE80683
:104EE000FDE1000EF86E00016AEF1FF0BFC0C2F0D6
:104EF00087EF27F0BDC0B2F0BEC0B3F0C20E000114
:104F0000B46FC0C0B5F0C1C0B6F0F9EC19F0C2C0C2
:104F1000F6FF080EF76E0800F5500009D8A493EFCD
:104F200027F095EF27F07AEF27F0000E0001BE6F13
:104F3000000EBD6F1200016EC586C7A0A2EF27F05C
:104F4000A4EF27F09DEF27F0C9CF02F00150D8A4BD
:104F5000ACEF27F0AEEF27F0B2EF27F03FEC29F0EF
:104F6000B4EF27F035EC29F09EA6B9EF27F0BBEFA0
:104F700027F0B4EF27F09E9602501200000E2E1A72
:104F8000000E2F1A000E301A800E311A2AC01AF0A5
:104F90002BC01BF02CC01CF02DC01DF02EC01EF02D
:104FA0002FC01FF030C020F031C021F0E6EC0CF033
:104FB0001AC02AF01BC02BF01CC02CF01DC02DF015
:104FC0001200000E106E000E0F6EF2EF27F00EC0F2
:104FD00001F0026A0CC003F00DC004F01CEC24F0D8
:104FE0000F4A102A0F500A24D96E10500B20DA6E87
:104FF000DF500E6E0E50D8A400EF28F002EF28F01C
:10500000E7EF27F01200000E056E000E046E14EF9D
:1050100028F004500224D96E05500320DA6EDF50C8
:105020001FEC29F0044A052A04500224D96E0550C9
:105030000320DA6EDF50D8A420EF28F022EF28F00A
:1050400009EF28F0120001C005F002C006F0032AA3
:105050000304046E04C0F6FF080EF76E05C0D9FF06
:1050600006C0DAFF054A062A0800F5CFDFFFDF5049
:10507000D8A43DEF28F03FEF28F027EF28F01200EA
:105080000150021003100410D8B449EF28F04BEF80
:1050900028F053EF28F0000E011A000E021A000E3D
:1050A000031A800E041A01C001F002C002F003C00E
:1050B00003F004C004F0120000008040CDCCCC3DD1
:1050C0000000004100008040CDCCCC3D9A99193EB3
:1050D0006F12833A0000C84100409C45A69BC43A29
:1050E0009A99993E0000003F0000803F0CBE7BEF84
:1050F00028F07DEF28F083EF28F00BC00BF00CC0F8
:105100000CF08FEF28F00BC00DF00CC00EF00D1E50
:105110000E1E0D4A0E2A0DC00BF00EC00CF0120030
:1051200014C105F015C106F016C107F017C108F04B
:1051300001C005F002C006F003C007F004C008F08B
:10514000089E05C001F006C002F007C003F008C0C9
:1051500004F01200000E0001A86F000EA76FDBEC38
:1051600016F00001A74BA82BA8BFC0EF28F0A8514C
:1051700009E11E0EA75DD8A0C0EF28F0C2EF28F00D
:10518000AFEF28F01200000E0001A86F000EA76F0D
:1051900018EC15F00001A74BA82BA8BFD9EF28F0F9
:1051A000A85109E11E0EA75DD8A0D9EF28F0DBEFCA
:1051B00028F0C8EF28F0120001500302F3CF05F0E9
:1051C000F4CF06F001500402F35006260250030209
:1051D000F350062605C001F006C002F01200C7B465
:1051E000F4EF28F0F6EF28F0EFEF28F0C5CF01F04C
:1051F0001F0E0116D8A4FFEF28F001EF29F0EFEF02
:1052000028F01200948E948C000EB06E100EAF6ECB
:10521000AB88AB8EB886AC98AC84AC8A9F8A9D8AEA
:105220001200026EEFEC28F002C0C9FF9EA61BEF31
:1052300029F01DEF29F016EF29F09E961200016E5D
:10524000ACA225EF29F027EF29F020EF29F001C0CB
:10525000ADFF1200280EC66E000EC56E000EC76EA2
:10526000040EC86E938293801200C58AC588C5B8A3
:105270003CEF29F03EEF29F037EF29F01200C59AF4
:10528000C588C5B846EF29F048EF29F041EF29F06D
:105290001200036EEFEC28F0C580035011EC29F0EA
:1052A0001200700ED312030ED3121200EFEC28F08E
:0652B000C584120012008B
:020000040020DA
:08000000FFFFFFFFFFFFFFFF00
:020000040030CA
:0E0000000008191EFF8184FF0FC00FE00F40A3
:00000001FF
